{
  "contractName": "CoinFlip",
  "abi": [
    {
      "inputs": [
        {
          "internalType": "address",
          "name": "_vrfCoordinator",
          "type": "address"
        },
        {
          "internalType": "address",
          "name": "_linkToken",
          "type": "address"
        }
      ],
      "stateMutability": "nonpayable",
      "type": "constructor"
    },
    {
      "inputs": [
        {
          "internalType": "uint256",
          "name": "",
          "type": "uint256"
        }
      ],
      "name": "games",
      "outputs": [
        {
          "internalType": "address payable",
          "name": "player",
          "type": "address"
        },
        {
          "internalType": "uint256",
          "name": "amount",
          "type": "uint256"
        },
        {
          "internalType": "enum CoinFlip.Bet",
          "name": "bet",
          "type": "uint8"
        },
        {
          "internalType": "bool",
          "name": "isProcessed",
          "type": "bool"
        }
      ],
      "stateMutability": "view",
      "type": "function"
    },
    {
      "inputs": [],
      "name": "owner",
      "outputs": [
        {
          "internalType": "address",
          "name": "",
          "type": "address"
        }
      ],
      "stateMutability": "view",
      "type": "function"
    },
    {
      "inputs": [
        {
          "internalType": "bytes32",
          "name": "requestId",
          "type": "bytes32"
        },
        {
          "internalType": "uint256",
          "name": "randomness",
          "type": "uint256"
        }
      ],
      "name": "rawFulfillRandomness",
      "outputs": [],
      "stateMutability": "nonpayable",
      "type": "function"
    },
    {
      "inputs": [
        {
          "internalType": "enum CoinFlip.Bet",
          "name": "betChoice",
          "type": "uint8"
        }
      ],
      "name": "bet",
      "outputs": [],
      "stateMutability": "payable",
      "type": "function"
    },
    {
      "inputs": [],
      "name": "flipCoin",
      "outputs": [],
      "stateMutability": "nonpayable",
      "type": "function"
    },
    {
      "inputs": [
        {
          "internalType": "uint256",
          "name": "amount",
          "type": "uint256"
        }
      ],
      "name": "withdrawFunds",
      "outputs": [],
      "stateMutability": "nonpayable",
      "type": "function"
    }
  ],
  "bytecode": "0x60c06040523480156200001157600080fd5b50604051620018d7380380620018d7833981810160405281019062000037919062000142565b81818173ffffffffffffffffffffffffffffffffffffffff1660a08173ffffffffffffffffffffffffffffffffffffffff1660601b815250508073ffffffffffffffffffffffffffffffffffffffff1660808173ffffffffffffffffffffffffffffffffffffffff1660601b8152505050507fced103054e349b8dfb51352f0f8fa9b5d20dde3d06f9f43cb2b85bc64b23820560001b60018190555067016345785d8a000060028190555033600360006101000a81548173ffffffffffffffffffffffffffffffffffffffff021916908373ffffffffffffffffffffffffffffffffffffffff1602179055505050620001d1565b6000815190506200013c81620001b7565b92915050565b600080604083850312156200015657600080fd5b600062000166858286016200012b565b925050602062000179858286016200012b565b9150509250929050565b6000620001908262000197565b9050919050565b600073ffffffffffffffffffffffffffffffffffffffff82169050919050565b620001c28162000183565b8114620001ce57600080fd5b50565b60805160601c60a05160601c6116cc6200020b600039600081816104b90152610756015260008181610350015261071a01526116cc6000f3fe6080604052600436106100555760003560e01c8063117a5b901461005a578063155dd5ee1461009a578063799ae223146100c35780638da5cb5b146100da57806394985ddd14610105578063d0821b0e1461012e575b600080fd5b34801561006657600080fd5b50610081600480360381019061007c9190610dfa565b61014a565b60405161009194939291906111ac565b60405180910390f35b3480156100a657600080fd5b506100c160048036038101906100bc9190610dfa565b6101c4565b005b3480156100cf57600080fd5b506100d861034b565b005b3480156100e657600080fd5b506100ef610491565b6040516100fc9190611191565b60405180910390f35b34801561011157600080fd5b5061012c60048036038101906101279190610d95565b6104b7565b005b61014860048036038101906101439190610dd1565b610553565b005b6004818154811061015a57600080fd5b90600052602060002090600302016000915090508060000160009054906101000a900473ffffffffffffffffffffffffffffffffffffffff16908060010154908060020160009054906101000a900460ff16908060020160019054906101000a900460ff16905084565b600360009054906101000a900473ffffffffffffffffffffffffffffffffffffffff1673ffffffffffffffffffffffffffffffffffffffff163373ffffffffffffffffffffffffffffffffffffffff1614610254576040517f08c379a000000000000000000000000000000000000000000000000000000000815260040161024b9061135d565b60405180910390fd5b60006004805490501461029c576040517f08c379a00000000000000000000000000000000000000000000000000000000081526004016102939061131d565b60405180910390fd5b804710156102df576040517f08c379a00000000000000000000000000000000000000000000000000000000081526004016102d6906112fd565b60405180910390fd5b600360009054906101000a900473ffffffffffffffffffffffffffffffffffffffff1673ffffffffffffffffffffffffffffffffffffffff166108fc829081150290604051600060405180830381858888f19350505050158015610347573d6000803e3d6000fd5b5050565b6002547f000000000000000000000000000000000000000000000000000000000000000073ffffffffffffffffffffffffffffffffffffffff166370a08231306040518263ffffffff1660e01b81526004016103a79190611191565b60206040518083038186803b1580156103bf57600080fd5b505afa1580156103d3573d6000803e3d6000fd5b505050506040513d601f19601f820116820180604052508101906103f79190610e23565b1015610438576040517f08c379a000000000000000000000000000000000000000000000000000000000815260040161042f906112bd565b60405180910390fd5b600060048054905011610480576040517f08c379a00000000000000000000000000000000000000000000000000000000081526004016104779061129d565b60405180910390fd5b61048e600154600254610716565b50565b600360009054906101000a900473ffffffffffffffffffffffffffffffffffffffff1681565b7f000000000000000000000000000000000000000000000000000000000000000073ffffffffffffffffffffffffffffffffffffffff163373ffffffffffffffffffffffffffffffffffffffff1614610545576040517f08c379a000000000000000000000000000000000000000000000000000000000815260040161053c9061133d565b60405180910390fd5b61054f8282610875565b5050565b6002346105609190611400565b344761056c919061145a565b10156105ad576040517f08c379a00000000000000000000000000000000000000000000000000000000081526004016105a4906112dd565b60405180910390fd5b600460405180608001604052803373ffffffffffffffffffffffffffffffffffffffff168152602001348152602001836001811115610615577f4e487b7100000000000000000000000000000000000000000000000000000000600052602160045260246000fd5b815260200160001515815250908060018154018082558091505060019003906000526020600020906003020160009091909190915060008201518160000160006101000a81548173ffffffffffffffffffffffffffffffffffffffff021916908373ffffffffffffffffffffffffffffffffffffffff1602179055506020820151816001015560408201518160020160006101000a81548160ff021916908360018111156106ec577f4e487b7100000000000000000000000000000000000000000000000000000000600052602160045260246000fd5b021790555060608201518160020160016101000a81548160ff021916908315150217905550505050565b60007f000000000000000000000000000000000000000000000000000000000000000073ffffffffffffffffffffffffffffffffffffffff16634000aea07f00000000000000000000000000000000000000000000000000000000000000008486600060405160200161078a92919061122f565b6040516020818303038152906040526040518463ffffffff1660e01b81526004016107b7939291906111f1565b602060405180830381600087803b1580156107d157600080fd5b505af11580156107e5573d6000803e3d6000fd5b505050506040513d601f19601f820116820180604052508101906108099190610d6c565b50600061082b8460003060008089815260200190815260200160002054610c94565b905060016000808681526020019081526020016000205461084c91906113aa565b6000808681526020019081526020016000208190555061086c8482610cd0565b91505092915050565b600080600283610885919061155e565b14610891576001610894565b60005b9050600060016004805490506108aa919061145a565b90506000600482815481106108e8577f4e487b7100000000000000000000000000000000000000000000000000000000600052603260045260246000fd5b906000526020600020906003020190508060020160019054906101000a900460ff16610c8d578060020160009054906101000a900460ff166001811115610958577f4e487b7100000000000000000000000000000000000000000000000000000000600052602160045260246000fd5b836001811115610991577f4e487b7100000000000000000000000000000000000000000000000000000000600052602160045260246000fd5b1415610a13578060000160009054906101000a900473ffffffffffffffffffffffffffffffffffffffff1673ffffffffffffffffffffffffffffffffffffffff166108fc600283600101546109e69190611400565b9081150290604051600060405180830381858888f19350505050158015610a11573d6000803e3d6000fd5b505b60018160020160016101000a81548160ff02191690831515021790555060016004805490501115610be45760046001600480549050610a52919061145a565b81548110610a89577f4e487b7100000000000000000000000000000000000000000000000000000000600052603260045260246000fd5b906000526020600020906003020160048381548110610ad1577f4e487b7100000000000000000000000000000000000000000000000000000000600052603260045260246000fd5b90600052602060002090600302016000820160009054906101000a900473ffffffffffffffffffffffffffffffffffffffff168160000160006101000a81548173ffffffffffffffffffffffffffffffffffffffff021916908373ffffffffffffffffffffffffffffffffffffffff160217905550600182015481600101556002820160009054906101000a900460ff168160020160006101000a81548160ff02191690836001811115610bae577f4e487b7100000000000000000000000000000000000000000000000000000000600052602160045260246000fd5b02179055506002820160019054906101000a900460ff168160020160016101000a81548160ff0219169083151502179055509050505b6004805480610c1c577f4e487b7100000000000000000000000000000000000000000000000000000000600052603160045260246000fd5b6001900381819060005260206000209060030201600080820160006101000a81549073ffffffffffffffffffffffffffffffffffffffff021916905560018201600090556002820160006101000a81549060ff02191690556002820160016101000a81549060ff0219169055505090555b5050505050565b600084848484604051602001610cad9493929190611258565b6040516020818303038152906040528051906020012060001c9050949350505050565b60008282604051602001610ce5929190611165565b60405160208183030381529060405280519060200120905092915050565b600081519050610d1281611641565b92915050565b600081359050610d2781611658565b92915050565b600081359050610d3c8161166f565b92915050565b600081359050610d518161167f565b92915050565b600081519050610d668161167f565b92915050565b600060208284031215610d7e57600080fd5b6000610d8c84828501610d03565b91505092915050565b60008060408385031215610da857600080fd5b6000610db685828601610d18565b9250506020610dc785828601610d42565b9150509250929050565b600060208284031215610de357600080fd5b6000610df184828501610d2d565b91505092915050565b600060208284031215610e0c57600080fd5b6000610e1a84828501610d42565b91505092915050565b600060208284031215610e3557600080fd5b6000610e4384828501610d57565b91505092915050565b610e55816114a0565b82525050565b610e648161148e565b82525050565b610e73816114b2565b82525050565b610e82816114be565b82525050565b610e99610e94826114be565b61154a565b82525050565b6000610eaa8261137d565b610eb48185611388565b9350610ec4818560208601611517565b610ecd8161161c565b840191505092915050565b610ee181611505565b82525050565b6000610ef4601083611399565b91507f4e6f206163746976652067616d65732e000000000000000000000000000000006000830152602082019050919050565b6000610f34602b83611399565b91507f4e6f7420656e6f756768204c494e4b202d2066696c6c20636f6e74726163742060008301527f77697468206661756365740000000000000000000000000000000000000000006020830152604082019050919050565b6000610f9a603b83611399565b91507f54686520636f6e747261637420646f65736e2774206861766520656e6f75676860008301527f2066756e647320746f20706179206f75742074686973206265742e00000000006020830152604082019050919050565b6000611000601183611399565b91507f4e6f7420656e6f7567682066756e64732e0000000000000000000000000000006000830152602082019050919050565b6000611040602c83611399565b91507f43616e2774207769746864726177207768696c6520746865726520617265206160008301527f63746976652067616d65732e00000000000000000000000000000000000000006020830152604082019050919050565b60006110a6601f83611399565b91507f4f6e6c7920565246436f6f7264696e61746f722063616e2066756c66696c6c006000830152602082019050919050565b60006110e6602f83611399565b91507f4f6e6c792074686520636f6e7472616374206f776e65722063616e2063616c6c60008301527f20746869732066756e6374696f6e2e00000000000000000000000000000000006020830152604082019050919050565b611148816114fb565b82525050565b61115f61115a826114fb565b611554565b82525050565b60006111718285610e88565b602082019150611181828461114e565b6020820191508190509392505050565b60006020820190506111a66000830184610e5b565b92915050565b60006080820190506111c16000830187610e4c565b6111ce602083018661113f565b6111db6040830185610ed8565b6111e86060830184610e6a565b95945050505050565b60006060820190506112066000830186610e5b565b611213602083018561113f565b81810360408301526112258184610e9f565b9050949350505050565b60006040820190506112446000830185610e79565b611251602083018461113f565b9392505050565b600060808201905061126d6000830187610e79565b61127a602083018661113f565b6112876040830185610e5b565b611294606083018461113f565b95945050505050565b600060208201905081810360008301526112b681610ee7565b9050919050565b600060208201905081810360008301526112d681610f27565b9050919050565b600060208201905081810360008301526112f681610f8d565b9050919050565b6000602082019050818103600083015261131681610ff3565b9050919050565b6000602082019050818103600083015261133681611033565b9050919050565b6000602082019050818103600083015261135681611099565b9050919050565b60006020820190508181036000830152611376816110d9565b9050919050565b600081519050919050565b600082825260208201905092915050565b600082825260208201905092915050565b60006113b5826114fb565b91506113c0836114fb565b9250827fffffffffffffffffffffffffffffffffffffffffffffffffffffffffffffffff038211156113f5576113f461158f565b5b828201905092915050565b600061140b826114fb565b9150611416836114fb565b9250817fffffffffffffffffffffffffffffffffffffffffffffffffffffffffffffffff048311821515161561144f5761144e61158f565b5b828202905092915050565b6000611465826114fb565b9150611470836114fb565b9250828210156114835761148261158f565b5b828203905092915050565b6000611499826114db565b9050919050565b60006114ab826114db565b9050919050565b60008115159050919050565b6000819050919050565b60008190506114d68261162d565b919050565b600073ffffffffffffffffffffffffffffffffffffffff82169050919050565b6000819050919050565b6000611510826114c8565b9050919050565b60005b8381101561153557808201518184015260208101905061151a565b83811115611544576000848401525b50505050565b6000819050919050565b6000819050919050565b6000611569826114fb565b9150611574836114fb565b925082611584576115836115be565b5b828206905092915050565b7f4e487b7100000000000000000000000000000000000000000000000000000000600052601160045260246000fd5b7f4e487b7100000000000000000000000000000000000000000000000000000000600052601260045260246000fd5b7f4e487b7100000000000000000000000000000000000000000000000000000000600052602160045260246000fd5b6000601f19601f8301169050919050565b6002811061163e5761163d6115ed565b5b50565b61164a816114b2565b811461165557600080fd5b50565b611661816114be565b811461166c57600080fd5b50565b6002811061167c57600080fd5b50565b611688816114fb565b811461169357600080fd5b5056fea26469706673582212209800f10d13ee80d8e7699260ad26260dbaf05171d5c225b75b6565615c66c4c464736f6c63430008000033",
  "immutableReferences": {
    "73": [
      {
        "length": 32,
        "start": 848
      },
      {
        "length": 32,
        "start": 1818
      }
    ],
    "75": [
      {
        "length": 32,
        "start": 1209
      },
      {
        "length": 32,
        "start": 1878
      }
    ]
  },
  "source": "// SPDX-License-Identifier: MIT\npragma solidity ^0.8.0;\n\nimport \"@chainlink/contracts/src/v0.8/VRFConsumerBase.sol\";\n\ncontract CoinFlip is VRFConsumerBase {\n    enum Bet { Heads, Tails }\n    struct Game {\n        address payable player;\n        uint256 amount;\n        Bet bet;\n        bool isProcessed;\n    }\n\n    bytes32 internal keyHash;\n    uint256 internal fee;\n    address public owner;\n    Game[] public games;\n\n    modifier onlyOwner() {\n        require(msg.sender == owner, \"Only the contract owner can call this function.\");\n        _;\n    }\n\n    constructor(address _vrfCoordinator, address _linkToken) VRFConsumerBase(_vrfCoordinator, _linkToken) {\n        keyHash = 0xced103054e349b8dfb51352f0f8fa9b5d20dde3d06f9f43cb2b85bc64b238205;\n        fee = 0.1 * 10 ** 18; // 0.1 LINK (varies by network)\n        owner = msg.sender;\n    }\n\n    function bet(Bet betChoice) external payable {\n        require(address(this).balance - msg.value >= msg.value * 2, \"The contract doesn't have enough funds to pay out this bet.\");\n        games.push(Game(payable(msg.sender), msg.value, betChoice, false));\n    }\n\n    function flipCoin() external {\n        require(LINK.balanceOf(address(this)) >= fee, \"Not enough LINK - fill contract with faucet\");\n        require(games.length > 0, \"No active games.\");\n        requestRandomness(keyHash, fee);\n    }\n\n    function fulfillRandomness(bytes32 requestId, uint256 randomness) internal override {\n        Bet result = (randomness % 2 == 0) ? Bet.Heads : Bet.Tails;\n        uint256 lastGameIndex = games.length - 1;\n        Game storage lastGame = games[lastGameIndex];\n\n        if (!lastGame.isProcessed) {\n            if (result == lastGame.bet) {\n                lastGame.player.transfer(lastGame.amount * 2);\n            }\n\n            lastGame.isProcessed = true;\n\n            if (games.length > 1) {\n                games[lastGameIndex] = games[games.length - 1];\n            }\n            games.pop();\n        }\n    }\n\n    function withdrawFunds(uint256 amount) external onlyOwner {\n        require(games.length == 0, \"Can't withdraw while there are active games.\");\n        require(address(this).balance >= amount, \"Not enough funds.\");\n        payable(owner).transfer(amount);\n    }\n}\n",
  "sourcePath": "/Users/oswin/Projects/solidity/mercury-solidity/contracts/FlipCoin.sol",
  "compiler": {
    "name": "solc",
    "version": "0.8.0+commit.c7dfd78e.Emscripten.clang"
  },
  "schemaVersion": "3.4.14",
  "updatedAt": "2023-08-02T16:40:33.381Z",
  "devdoc": {
    "kind": "dev",
    "methods": {},
    "version": 1
  },
  "userdoc": {
    "kind": "user",
    "methods": {},
    "version": 1
  }
}