{
  "contractName": "MockVRF",
  "abi": [
    {
      "inputs": [],
      "stateMutability": "nonpayable",
      "type": "constructor"
    },
    {
      "anonymous": false,
      "inputs": [
        {
          "indexed": false,
          "internalType": "bytes32",
          "name": "requestId",
          "type": "bytes32"
        },
        {
          "indexed": false,
          "internalType": "uint256",
          "name": "randomness",
          "type": "uint256"
        }
      ],
      "name": "RandomnessFulfilled",
      "type": "event"
    },
    {
      "inputs": [],
      "name": "lastRandomness",
      "outputs": [
        {
          "internalType": "uint256",
          "name": "",
          "type": "uint256"
        }
      ],
      "stateMutability": "view",
      "type": "function"
    },
    {
      "inputs": [
        {
          "internalType": "bytes32",
          "name": "requestId",
          "type": "bytes32"
        },
        {
          "internalType": "uint256",
          "name": "randomness",
          "type": "uint256"
        }
      ],
      "name": "rawFulfillRandomness",
      "outputs": [],
      "stateMutability": "nonpayable",
      "type": "function"
    },
    {
      "inputs": [],
      "name": "requestId",
      "outputs": [
        {
          "internalType": "bytes32",
          "name": "",
          "type": "bytes32"
        }
      ],
      "stateMutability": "view",
      "type": "function"
    },
    {
      "inputs": [
        {
          "internalType": "bytes32",
          "name": "_keyHash",
          "type": "bytes32"
        },
        {
          "internalType": "uint256",
          "name": "_fee",
          "type": "uint256"
        }
      ],
      "name": "testRequestRandomness",
      "outputs": [
        {
          "internalType": "bytes32",
          "name": "",
          "type": "bytes32"
        }
      ],
      "stateMutability": "nonpayable",
      "type": "function"
    }
  ],
  "bytecode": "0x60c060405234801561001057600080fd5b506000808173ffffffffffffffffffffffffffffffffffffffff1660a08173ffffffffffffffffffffffffffffffffffffffff1660601b815250508073ffffffffffffffffffffffffffffffffffffffff1660808173ffffffffffffffffffffffffffffffffffffffff1660601b81525050505060805160601c60a05160601c61082c6100b56000396000818160fd01526101dd015260006101a1015261082c6000f3fe608060405234801561001057600080fd5b506004361061004b5760003560e01c80626d6cae14610050578063866ee7481461006e57806394985ddd1461009e578063f2a3072d146100ba575b600080fd5b6100586100d8565b6040516100659190610591565b60405180910390f35b61008860048036038101906100839190610417565b6100de565b6040516100959190610591565b60405180910390f35b6100b860048036038101906100b39190610417565b6100fb565b005b6100c2610197565b6040516100cf919061063a565b60405180910390f35b60015481565b60006100ea838361019d565b600181905550600154905092915050565b7f000000000000000000000000000000000000000000000000000000000000000073ffffffffffffffffffffffffffffffffffffffff163373ffffffffffffffffffffffffffffffffffffffff1614610189576040517f08c379a00000000000000000000000000000000000000000000000000000000081526004016101809061061a565b60405180910390fd5b61019382826102fc565b5050565b60025481565b60007f000000000000000000000000000000000000000000000000000000000000000073ffffffffffffffffffffffffffffffffffffffff16634000aea07f0000000000000000000000000000000000000000000000000000000000000000848660006040516020016102119291906105ac565b6040516020818303038152906040526040518463ffffffff1660e01b815260040161023e93929190610553565b602060405180830381600087803b15801561025857600080fd5b505af115801561026c573d6000803e3d6000fd5b505050506040513d601f19601f8201168201806040525081019061029091906103ee565b5060006102b28460003060008089815260200190815260200160002054610340565b90506001600080868152602001908152602001600020546102d39190610682565b600080868152602001908152602001600020819055506102f3848261037c565b91505092915050565b806002819055507f9b0aa3f92f46e24caa76b000bdf0dd495b9b390c320cf6585ae10a12b7d09edb82826040516103349291906105ac565b60405180910390a15050565b60008484848460405160200161035994939291906105d5565b6040516020818303038152906040528051906020012060001c9050949350505050565b60008282604051602001610391929190610527565b60405160208183030381529060405280519060200120905092915050565b6000815190506103be816107b1565b92915050565b6000813590506103d3816107c8565b92915050565b6000813590506103e8816107df565b92915050565b60006020828403121561040057600080fd5b600061040e848285016103af565b91505092915050565b6000806040838503121561042a57600080fd5b6000610438858286016103c4565b9250506020610449858286016103d9565b9150509250929050565b61045c816106d8565b82525050565b61046b816106f6565b82525050565b61048261047d826106f6565b61075d565b82525050565b600061049382610655565b61049d8185610660565b93506104ad81856020860161072a565b6104b6816107a0565b840191505092915050565b60006104ce601f83610671565b91507f4f6e6c7920565246436f6f7264696e61746f722063616e2066756c66696c6c006000830152602082019050919050565b61050a81610720565b82525050565b61052161051c82610720565b610767565b82525050565b60006105338285610471565b6020820191506105438284610510565b6020820191508190509392505050565b60006060820190506105686000830186610453565b6105756020830185610501565b81810360408301526105878184610488565b9050949350505050565b60006020820190506105a66000830184610462565b92915050565b60006040820190506105c16000830185610462565b6105ce6020830184610501565b9392505050565b60006080820190506105ea6000830187610462565b6105f76020830186610501565b6106046040830185610453565b6106116060830184610501565b95945050505050565b60006020820190508181036000830152610633816104c1565b9050919050565b600060208201905061064f6000830184610501565b92915050565b600081519050919050565b600082825260208201905092915050565b600082825260208201905092915050565b600061068d82610720565b915061069883610720565b9250827fffffffffffffffffffffffffffffffffffffffffffffffffffffffffffffffff038211156106cd576106cc610771565b5b828201905092915050565b60006106e382610700565b9050919050565b60008115159050919050565b6000819050919050565b600073ffffffffffffffffffffffffffffffffffffffff82169050919050565b6000819050919050565b60005b8381101561074857808201518184015260208101905061072d565b83811115610757576000848401525b50505050565b6000819050919050565b6000819050919050565b7f4e487b7100000000000000000000000000000000000000000000000000000000600052601160045260246000fd5b6000601f19601f8301169050919050565b6107ba816106ea565b81146107c557600080fd5b50565b6107d1816106f6565b81146107dc57600080fd5b50565b6107e881610720565b81146107f357600080fd5b5056fea26469706673582212209d9cba13d1919da5b5d4ad8fc081b790c90b63027ae7d6351ef61ea68b30c1c064736f6c63430008000033",
  "immutableReferences": {
    "73": [
      {
        "length": 32,
        "start": 417
      }
    ],
    "75": [
      {
        "length": 32,
        "start": 253
      },
      {
        "length": 32,
        "start": 477
      }
    ]
  },
  "source": "// SPDX-License-Identifier: MIT\npragma solidity ^0.8.0;\n\nimport \"@chainlink/contracts/src/v0.8/VRFConsumerBase.sol\";\n\ncontract MockVRF is VRFConsumerBase {\n    bytes32 public requestId;\n    uint256 public lastRandomness;\n\n    constructor() VRFConsumerBase(\n        address(0), // Mock VRF Coordinator\n        address(0)  // Mock LINK Token\n    ) {}\n\n    function fulfillRandomness(bytes32 _requestId, uint256 randomness) internal override {\n        // Save the randomness for testing\n        lastRandomness = randomness;\n\n        // Optionally, you can emit an event here to notify off-chain\n        // systems that the randomness was fulfilled\n        emit RandomnessFulfilled(_requestId, randomness);\n    }\n\n    function testRequestRandomness(bytes32 _keyHash, uint256 _fee) public returns (bytes32) {\n        requestId = super.requestRandomness(_keyHash, _fee);\n        return requestId;\n    }\n\n    event RandomnessFulfilled(bytes32 requestId, uint256 randomness);\n}\n",
  "sourcePath": "/Users/oswin/Projects/solidity/mercury-solidity/contracts/MockVRF.sol",
  "compiler": {
    "name": "solc",
    "version": "0.8.0+commit.c7dfd78e.Emscripten.clang"
  },
  "schemaVersion": "3.4.14",
  "updatedAt": "2023-08-02T16:40:33.385Z",
  "devdoc": {
    "kind": "dev",
    "methods": {},
    "version": 1
  },
  "userdoc": {
    "kind": "user",
    "methods": {},
    "version": 1
  }
}